:020000040800F2
:100000000080012045520008951600089716000848
:10001000991600089B1600089D16000800000000B5
:10002000000000000000000000000000614F000818
:100030009F1600080000000001500008F34A000865
:1000400095520008955200089552000895520008F4
:1000500095520008955200089552000895520008E4
:1000600095520008955200089552000895520008D4
:1000700095520008955200089552000895520008C4
:1000800095520008955200089552000895520008B4
:1000900095520008955200089552000895520008A4
:1000A0009552000895520008A116000895520008C4
:1000B0009552000895520008955200089552000884
:1000C0009552000895520008955200089552000874
:1000D0009552000895520008955200089552000864
:1000E0009552000895520008955200089552000854
:1000F0009552000895520008955200089552000844
:100100009552000895520008955200089552000833
:100110009552000895520008955200089552000823
:100120009552000895520008955200089552000813
:100130009552000895520008955200089552000803
:1001400095520008955200089552000895520008F3
:1001500095520008955200089552000895520008E3
:1001600095520008955200089552000895520008D3
:1001700095520008955200089552000800000000B2
:08018000955200089552000899
:1001900010B5054C237833B9044B13B10448AFF3C1
:1001A00000800123237010BD4804002000000000DF
:1001B0002455000808B5034B1BB103490348AFF3AE
:1001C000008008BD000000004C04002024550008F9
:1001D000844641EA000313F003036DD1403A41D352
:1001E00051F8043B40F8043B51F8043B40F8043B11
:1001F00051F8043B40F8043B51F8043B40F8043B01
:1002000051F8043B40F8043B51F8043B40F8043BF0
:1002100051F8043B40F8043B51F8043B40F8043BE0
:1002200051F8043B40F8043B51F8043B40F8043BD0
:1002300051F8043B40F8043B51F8043B40F8043BC0
:1002400051F8043B40F8043B51F8043B40F8043BB0
:1002500051F8043B40F8043B51F8043B40F8043BA0
:10026000403ABDD2303211D351F8043B40F8043B40
:1002700051F8043B40F8043B51F8043B40F8043B80
:1002800051F8043B40F8043B103AEDD20C3205D350
:1002900051F8043B40F8043B043AF9D2043208D048
:1002A000D2071CBF11F8013B00F8013B01D30B88BA
:1002B00003806046704700BF082A13D38B078DD098
:1002C00010F003038AD0C3F10403D21ADB071CBF6A
:1002D00011F8013B00F8013B80D331F8023B20F8D4
:1002E000023B7BE7043AD9D3013A11F8013B00F80D
:1002F000013BF9D20B7803704B7843708B78837095
:100300006046704753B94AB9002908BF00281CBF8E
:100310004FF0FF314FF0FF3001F0DEB8ADF1080CC7
:100320006DE904CE00F006F8DDF804E0DDE9022313
:1003300004B070472DE9F047089D04468E46002B17
:100340004DD18A42944669D9B2FA82F252B101FA89
:1003500002F3C2F1200120FA01F10CFA02FC41EA99
:10036000030E94404FEA1C48210CBEFBF8F61FFA1E
:100370008CF708FB16E341EA034306FB07F19942B9
:100380000AD91CEB030306F1FF3080F01F8199426C
:1003900040F21C81023E63445B1AA4B2B3FBF8F046
:1003A00008FB103344EA034400FB07F7A7420AD9CD
:1003B0001CEB040400F1FF3380F00A81A74240F2F5
:1003C00007816444023840EA0640E41B00261DB160
:1003D000D4400023C5E900433146BDE8F0878B4295
:1003E00009D9002D00F0EF800026C5E90001304654
:1003F0003146BDE8F087B3FA83F6002E4AD18B422E
:1004000002D3824200F2F980841A61EB03030120D7
:100410009E46002DE0D0C5E9004EDDE702B9FFDEC3
:10042000B2FA82F2002A40F09280A1EB0C014FEA6E
:100430001C471FFA8CFE0126200CB1FBF7F307FBCB
:10044000131140EA01410EFB03F0884208D91CEB6E
:10045000010103F1FF3802D2884200F2CB8043460B
:10046000091AA4B2B1FBF7F007FB101144EA0144EA
:100470000EFB00FEA64508D91CEB040400F1FF3179
:1004800002D2A64500F2BB800846A4EB0E0440EA67
:1004900003409CE7C6F12007B34022FA07FC4CEA70
:1004A000030C20FA07F401FA06F31C43F9404FEA63
:1004B0001C4900FA06F3B1FBF9F8200C1FFA8CFE78
:1004C00009FB181140EA014108FB0EF0884202FACC
:1004D00006F20BD91CEB010108F1FF3A80F088808D
:1004E000884240F28580A8F102086144091AA4B24A
:1004F000B1FBF9F009FB101144EA014100FB0EFECB
:100500008E4508D91CEB010100F1FF346CD28E45F9
:100510006AD90238614440EA0840A0FB0294A1EB8A
:100520000E01A142C846A64656D353D05DB1B3EBE7
:10053000080261EB0E0101FA07F722FA06F3F14017
:100540001F43C5E9007100263146BDE8F087C2F1BE
:100550002003D8400CFA02FC21FA03F39140014336
:100560004FEA1C471FFA8CFEB3FBF7F007FB10366F
:100570000B0C43EA064300FB0EF69E4204FA02F41B
:1005800008D91CEB030300F1FF382FD29E422DD96E
:10059000023863449B1B89B2B3FBF7F607FB1633A3
:1005A00041EA034106FB0EF38B4208D91CEB010123
:1005B00006F1FF3816D28B4214D9023E6144C91AA3
:1005C00046EA004638E72E46284605E70646E3E6B3
:1005D0001846F8E64B45A9D2B9EB020864EB0C0EBD
:1005E0000138A3E74646EAE7204694E74046D1E7CC
:1005F000D0467BE7023B614432E7304609E764447A
:10060000023842E703685A004CBF43F0004323F02E
:1006100000431844704700BF2DE9F84329B34F1E2B
:10062000044615463E464FF0000808EB060101EB74
:10063000D171491004EBC1094846FFF7E3FF0346B7
:10064000C80008308F42204409D0AB4209D8FFF7D8
:10065000D9FF0138A8420AD201F10108E5E7AB420F
:1006600005D9884501D04E1EDFE74FF00009484606
:10067000BDE8F883012807D0022807D0044B0028E2
:100680000CBF184600207047024870470248704768
:100690004D0D0008510D0008550D000830B5234BD5
:1006A00083B004468D1E3BB301A92846AFF30080FA
:1006B000E8B101992A46FFF7AFFF0146B8B1FFF74D
:1006C000A1FF4B68A064012B2CD0002B01F104008A
:1006D00024DBFFF797FF0023C4E913030368002B13
:1006E00011DBFFF78FFF2061002003B030BD002336
:1006F0000920236103B030BD0D4B0E49C91AC91042
:1007000018460191D6E7C3F30360FFF7B3FF002853
:10071000206114BF0020092003B030BD0123C4E9CB
:100720001303DBE7002323610520DEE70000000060
:1007300000560008C85600080368DA0710B50446DA
:1007400006D49B0700F1480009D500F05BFC236844
:10075000590709D51A070ED5DB0613D510BD00F0D1
:1007600049FC23685907F5D404F1D00000F052FC8D
:1007700023681A07F0D404F5A87000F053FC23682E
:10078000DB06EBD404F5E870BDE8104000F08EBC49
:10079000092070470346006800B11844704700BF45
:1007A000704700BF70B504460E46316C2046FFF717
:1007B00075FF054688B9326C62612369324621466D
:1007C000012098470828F0D0072806D12846316C28
:1007D000FFF7E6FF301D00F001FC04F043FE00BF10
:1007E0002DE9F0470D1DD0F80C80D0F81890074681
:1007F00014460FCDADF5727D0DF10C0CACE80F0079
:100800000FCDACE80F000FCDACE80F0095E80F005E
:1008100002AE4FF0000E8CE80F00C6F800E020E0BA
:10082000336C7B614FF4F07231467AA8FFF7D0FC4D
:100830003B697AAA394650469847889B736421469B
:10084000CDE9006905463B463A460120C0470446CB
:10085000E0B94FF4F0727AA93046FFF7B9FC082DE1
:100860001AD1316C3846FFF719FF09345FFA84FA60
:1008700005460028D4D0B36B73643A46CDE90069CD
:100880003B464AF010010120C04700B10925284627
:100890000DF5727DBDE8F087072DF7D12046316C4C
:1008A000FFF77EFF03A800F099FB00BF406C704784
:1008B000F0B5CB6B0B6401F1040C0E460546BCE8A9
:1008C0000F00F9B001AC0FC4BCE80F000FC4BCE8C6
:1008D0000F000FC49CE80F004FF0FF3784E80F00B3
:1008E000009706E02B696A4629469847082804467F
:1008F00008D110992846FFF7D1FE0028F2D0092030
:1009000079B0F0BD6846FFF717FF062CF7D13146E6
:100910002846FFF747FF00BFC160D96B82611964A9
:10092000002219465CE700BF70B5C66843690B64D6
:10093000AEB903690A4604460D46014602209847AF
:10094000072805D008280FD129462046FFF72AFF9F
:100950003046296CFFF724FF281D00F03FFB0122E1
:10096000FFF73EFF04F07EFD04F07CFDC2681AB183
:10097000CA6B0A64002233E79AE700BF704700BFE2
:10098000836801460BB1012018477047012912D036
:1009900009D873B90F2A0CD800EB820218465368A5
:1009A000009A136070470339012994BF0120022087
:1009B0007047022070470846704700BF00B585B0F9
:1009C0000A46002303A900911946FFF7DFFF0398A9
:1009D00005B05DF804FB00BF012912D009D873B936
:1009E0000F2A0CD800EB8200009A12684260184669
:1009F00070470339012994BF01200220704702206B
:100A000070470846704700BF10B584B0002303ACA0
:100A1000039200940A461946FFF7DEFF04B010BDAA
:100A200070B5D36B136402F1040C05460C46BCE8A8
:100A30000F00ADF50E7D0DF15C0EAEE80F00BCE8C9
:100A40000F00AEE80F00BCE80F00AEE80F009CE816
:100A50000F004FF0FF368EE80F00169610E0FFF7FC
:100A6000D3FF214616A8A847034616AA69460820C0
:100A700083B9049B9847052806460CD0092809D05D
:100A800026996846FFF70AFE03466A460C2116A817
:100A9000002BE4D0092616A8FFF74EFE30460DF5D0
:100AA0000E7D70BD2DE9F04FCC6C89B01E4654F818
:100AB000043B06940D46174600F00308002E79D03B
:100AC0001A0C1B0405938DF81D200223D2B204EBEF
:100AD00082048DF81C302B6DB8F1020F08BFAC6B8F
:100AE00013F001030CD005A9384600F079FB18B9C2
:100AF000082009B0BDE8F08F092009B0BDE8F08FEB
:100B0000D4F800A0BAF1000FEDD0019300F0080373
:100B10000293022E4AD0B4F800A0B4F80290043434
:100B2000AB6C29F0010B0F2138469B44FFF746FFC1
:100B3000834539D82AF001039B44834594BF0020A4
:100B400001204FEA490303F002030AF0010A43EAD5
:100B50000A03012B49D0022B32D0002BCCD1B8F1A3
:100B6000000F02D0002840F0CD800434D4F800A05B
:100B7000BAF1000FCDD105A9384600F031FB0028AD
:100B8000BAD1019B002BB3D00F213846FFF716FFD7
:100B90000E2102463846FFF737FF38466A4A0F21D2
:100BA000FFF732FF0720A8E70020CAE7D4F8049037
:100BB0000834B5E71B0205930323ADF81C308AE720
:100BC000236823F0004BB8F1000F45D128B1029AF9
:100BD000002A5CD0BBF1000F74D0002B00DA043483
:100BE0000BF1010B04EB8B04C0E7B8F1000F19D136
:100BF000B0B163682268991C4FEAD2723FF47CAFAF
:100C000005F158010133049100F09080201DFFF799
:100C1000C1FD04AB01462846AFF3008000285BD13C
:100C20000834A3E70D213846D5F82090FFF7C6FE1B
:100C30008145F5D1AB6A9C42F2D12046FFF7E2FC38
:100C40000F2102463846FFF7DFFE38462A460021CC
:100C5000FFF7DAFE072050E70D213846D5F820903F
:100C6000FFF7ACFE814501D02368B6E7AB6A9C4232
:100C7000FAD104230022C5E90B23E318C5F828B0F4
:100C80006B632368002B59DB01230193A8E705F16F
:100C90005803CDF80C8004F1040AB04691461E4674
:100CA0000EE050460496FFF775FD0022014604ABA6
:100CB000284609F101090AF1040AAFF30080E0B9FE
:100CC000D945EED10D213846FFF778FE049BAC6282
:100CD000C5E90803062010E781460D213846FFF7D5
:100CE0006DFEB9F1020F286225D12B46049A43F814
:100CF0002C2F6B62AC620620FFE646462368DDF8C7
:100D00000C806AE72046FFF77DFC04340246AC63A2
:100D100028461446AFF3008000283FF4EDAE384675
:100D200022460F21FFF770FE0720E6E60D21384628
:100D3000FFF744FE2862049B6B62DBE70BF10100C6
:100D400004EB80007AE700BF000000000023A9E662
:100D50000123A7E60223A5E62DE9F0430646C3B02A
:100D600015461C46042900F2BF80DFE801F09E57BB
:100D7000BD2D0300002C40F0B780102A00F2B48093
:100D80000368D80600F1F98020AF384600F098F9E2
:100D9000B46B394600234FF0010C0CFA03F22A42DF
:100DA000204603F1010303D050F8042B0A600446E7
:100DB000042B01F10401F0D13846B46300F076F958
:100DC000002043B0BDE8F083032C40F08D8094B246
:100DD00004EB1243102B4FEA124500F285800368A2
:100DE0001F0700F1D28020AF384600F03DF9B26B0A
:100DF00007EBC50154B10B46D01A01EBC401E40066
:100E00001D5843F8045B8B42FAD122443846B26342
:100E100000F008F9002043B0BDE8F083012C4FEA50
:100E2000124895B25CD0052C5ED108EB0509B9F1EA
:100E3000200F59D8B8F10F0F79D9A946002D40F0ED
:100E40008A80B36B6DB320AF4FF0000907EBC80782
:100E5000043F03EBC50553F8041B47F8041FAB42DE
:100E6000F9D1B9F1000F0FD06F464146102938BFB4
:100E7000102107EBC101843903EBC90553F8040BBA
:100E800041F8040FAB42F9D1012C00F08680B8F193
:100E90000F0FB56347D9B9F1000F02D0684600F0D3
:100EA000B9F8002043B0BDE8F083ECB9806B23466D
:100EB0001FFA82FC0124371D04FA03F212EA0C0F18
:100EC000014604D051F8042B47F82320084601338B
:100ED000102BF1D115F40055E3D1B063284604E09E
:100EE00008EB0503102B03D9022043B0BDE8F083C3
:100EF000B8F10F0FF8D83368DA0706D5304623F07B
:100F0000030340F8483B00F079F820AF384600F082
:100F100075F8B36B002D97D11D460435B56338467F
:100F200000F068F8BDE720A800F06CF8B3E7B9F16D
:100F3000100F40D9A9F110093368D90708D523F05B
:100F40000103304643F0020340F8483B00F05EF8EE
:100F5000B9F1000F32D033685A0720D4B8F10F0F1F
:100F600025D96F463846C8F1100500F057F8002D16
:100F7000B36B7FF77AAF20AF68E723F010033360DD
:100F800006F5E87000F09CF8FEE623F00803036025
:100F900000F5A87000F068F825E720AFBDE73046FF
:100FA00023F0040340F8D03B00F038F8D6E720A83F
:100FB00000F02CF8D5E74FF00009BDE7B8F10F0FAE
:100FC0003FF63FAF20AF384600F020F8B36B002D5E
:100FD0007FF43AAF384600F015F862E700F13401CB
:100FE00091E838009C46A6464CF8045D90E8FF0F57
:100FF000E54600BD90EC210B704700BF80EC210B53
:10100000704700BF90EC200B704700BF80EC200BB6
:10101000704700BFD0EC200B704700BFC0EC200B26
:10102000704700BFF0EC0201F0EC0211F0EC02217D
:10103000F0EC0231F0EC0241F0EC0251F0EC026114
:10104000F0EC0271F0EC0281F0EC0291F0EC02A104
:10105000F0EC02B1F0EC02C1F0EC02D1F0EC02E1F4
:10106000F0EC02F1704700BFE0EC0201E0EC02118D
:10107000E0EC0221E0EC0231E0EC0241E0EC025154
:10108000E0EC0261E0EC0271E0EC0281E0EC029144
:10109000E0EC02A1E0EC02B1E0EC02C1E0EC02D134
:1010A000E0EC02E1E0EC02F1704700BFB0FC01812E
:1010B000B0FC0191B0FC01A1B0FC01B1704700BFD0
:1010C000A0FC0181A0FC0191A0FC01A1A0FC01B148
:1010D000704700BFEC4600B52DE900502DE9FF1F19
:1010E0004FF000032DE90C0001A9FFF7E1FBDDF84B
:1010F00040E012B0704700BFEC4600B52DE900504B
:101100002DE9FF1F4FF000032DE90C0001A9FFF7A7
:101110000BFCDDF840E012B0704700BFEC4600B5B4
:101120002DE900502DE9FF1F4FF000032DE90C00C1
:1011300001A9FFF71BFCDDF840E012B0704700BFCB
:10114000EC4600B52DE900502DE9FF1F4FF00003DC
:101150002DE90C0001ABFFF7DFFBDDF840E012B03A
:10116000704700BFEC4600B52DE900502DE9FF1F88
:101170004FF000032DE90C0001AAFFF751FCDDF848
:1011800040E012B0704700BF027A03467AB9427A53
:10119000A2B14168013A10B44272086803220C1DE2
:1011A0001A7202025C60000E10BC1A607047006880
:1011B000013A1A7202021A60000E7047B02070479E
:1011C00000B585B0002303AA009219460C22FFF750
:1011D000DDFB039805B05DF804FB00BFF0E700BF3E
:1011E0002DE9F043054685B00E464FF00008304625
:1011F000FFF7CAFFB028044600F0BA80070620D5E2
:1012000000F0F003802B4DD0902B36D0A02B60D077
:10121000B02B74D0C02B00F08B8000F0F803D02BE3
:101220000BD100F007020132052342F40022012114
:101230002846FFF791FD0028D9D0092005B0BDE868
:10124000F0838300DBB21F1D0DF10C09002319464A
:10125000CDF800900D222846FFF798FB039BCDF8B0
:10126000009060064CBFDF1BFF1800230D221946BB
:1012700028460397FFF7B0FBB9E700F00D030D2BED
:10128000DBD003AF002300F00F0219460097284679
:10129000FFF77CFB002300970D2219462846FFF735
:1012A0009BFBA4E73046FFF76FFF24022043B0F515
:1012B000004FC2D004010023A2B219462846FFF70E
:1012C0004BFD0028B9D114F4004F18BF4FF00108AE
:1012D0008DE7C24302F007034FF47F621A41010712
:1012E00002F47F624FF0000348BF42F48042194687
:1012F0002846FFF731FD00283FF479AF9DE7B1287C
:101300003BD0B22800F09380B32841D000F0FC031A
:10131000B42B92D000F007020132012342F40022E4
:1013200019462846FFF718FD00283FF460AF84E710
:10133000C6284AD0C72854D000F0F803C02B63D089
:10134000C82868D0C9287FF478AF3046FFF71CFF63
:10135000020300F00F0002F4702201300243012169
:1013600005232846FFF7F8FC00283FF440AF64E768
:10137000B8F1000F18D0002060E73046FFF704FFF7
:10138000024600283FF459AF10F0F003C8D054E7EC
:101390003046FFF7F9FE020300F00F03013302F4B9
:1013A00070221A430123BBE703AC43460E22414699
:1013B00000942846FFF7EAFA009443460F2241467C
:1013C0002846FFF709FB404638E73046FFF7DCFECA
:1013D000020300F00F03013302F470221A430323C7
:1013E0009EE73046FFF7D0FE024600283FF425AFC7
:1013F00010F0F0037FF421AF04212846FFF7ACFC86
:1014000000283FF4F4AE18E700F00F020132032386
:1014100042F4202284E73046FFF7B6FE00F0F002E7
:1014200000F00F031032013343EA023297E7002342
:101430000DF10C090D221946CDF800902846FFF752
:10144000A5FA3046FFF7A0FE02064FF002040CD5C5
:10145000039B00F07F00A040184403903046FFF744
:1014600093FE030604F10704F2D4039BCDF8009029
:1014700000F07F02A24003F501731A440023039297
:1014800019460D222846FFF7A7FAB0E610B5C26C40
:10149000536884B04FF0030C08321C0208461B0E40
:1014A00001A9019402928DF80CC08DF80D30FFF760
:1014B00097FE04B010BD00BF08B5FFF78FFE806C2B
:1014C00008BD00BF08B5FFF789FEC06CC3790233C1
:1014D00000EB830008BD00BF704700BF10B58AB0A5
:1014E000002405940694079408940994214BDA6C1F
:1014F00042F00402DA64DA6C02F004020192019A0A
:10150000DA6C42F08002DA64DA6C02F08002029255
:10151000029ADA6C42F00102DA64DA6C02F001023B
:101520000392039ADA6C42F00202DA64DB6C03F095
:1015300002030493049B224620214FF0904001F0C7
:10154000EFFA4FF4005305934FF4041306930794F6
:1015500005A9094801F0E4F9202305930123069326
:101560000794089405A94FF0904001F0D9F90AB00A
:1015700010BD00BF001002400008004808B501205F
:1015800003F050FBFBE7000008B50268034B9A42EA
:1015900000D008BD00F05AF9FBE700BF0048014049
:1015A00072B6FEE708B50B480B4B03604FF4E1330E
:1015B000436000238360C36003610C224261836146
:1015C000C3610362436201F0AEFF00B908BDFFF7DB
:1015D000E7FF00BF680400200044004000B597B05A
:1015E0004422002105A803F07BFE00230093019311
:1015F0000293039304934FF4007001F0A7FA20BB09
:10160000022305934FF480720892102209920F93DF
:101610001093012211920A2212920722139214931C
:10162000159305A800F0DAF988B90F230093032376
:10163000019300230293039304930421684600F06E
:10164000DBFC30B917B05DF804FBFFF7A9FFFFF72B
:10165000A7FFFFF7A5FF000008B500F0E1F8FFF7CE
:10166000BDFFFFF73BFFFFF79DFF03F0DFFD03F03A
:101670004DFA054A0021054803F076FA044B18603C
:1016800003F056FAFEE700BF4C5500087D15000830
:1016900064040020FEE7FEE7FEE7FEE7FEE7704792
:1016A00008B5024801F03EFB08BD00BFEC04002075
:1016B00000B583B00D4B1A6E42F001021A661A6E25
:1016C00002F001020092009A9A6D42F080529A65EF
:1016D0009B6D03F080530193019B00220F216FF05B
:1016E000010001F08DFA03B05DF804FB0010024028
:1016F00010B5AAB004460021259126912791289182
:101700002991882203A803F0EBFD2268184B9A4226
:1017100001D02AB010BD0223039303A800F0D6FE27
:1017200010BB144B9A6D42F400329A659A6D02F424
:1017300000320192019ADA6C42F00102DA64DB6C49
:1017400003F001030293029B0C23259302232693AB
:1017500000232793032328930723299325A94FF0D8
:10176000904001F0DDF8D4E7FFF71AFFD9E700BF9A
:10177000004400400010024030B589B004461E4BC2
:101780001A6E42F480221A661B6E03F480230193C2
:10179000019B02A903A800F01DFD00F009FD03460E
:1017A0001648A0FB03239B0C013B1548154A026019
:1017B00040F2E732C26043600023036183608361CB
:1017C00001F0E2FB054610B1284609B030BD0C48D7
:1017D00001F05EFA05460028F6D11A2001F048FA19
:1017E0000F2C01D90125EFE7002221461A2001F034
:1017F00007FA054B1C60E7E70010024083DE1B433D
:10180000EC0400200048014008000020034AD2F800
:10181000883043F47003C2F88830704700ED00E070
:1018200010B5094A136843F480731360032001F074
:10183000D5F90F20FFF7A0FF10B10124204610BDFD
:101840000446FFF735FFF9E700200240034B1B7801
:10185000034A11680B441360704700BF0400002066
:1018600038050020014B1868704700BF380500207C
:1018700038B50446FFF7F6FF0546B4F1FF3F02D046
:10188000044B1B781C44FFF7EDFF401BA042FAD32A
:1018900038BD00BF0400002030B583B00446204BA3
:1018A0009B6D13F0805F0BD001F048F9B0F5007F1D
:1018B00017D0802C1FD82DD0702C2DD000211BE0EC
:1018C000174DAB6D43F08053AB65AB6D03F08053A8
:1018D0000193019B01F032F9AB6D23F08053AB65AE
:1018E000E4E7802C03D9A02C03D9022104E00021D5
:1018F00002E0012100E003210A4A136823F00703F4
:101900000B431360136803F007038B4206D10020DA
:1019100003B030BD0221EFE70121EDE70120F7E739
:101920000010024000200240284A9368D26802F06A
:10193000030213F00C030AD00C2B06D0042B1FD08B
:10194000082B20D00020024610E0012AF6D11F4AC1
:10195000126812F0080F0CD11C4AD2F89420C2F37E
:1019600003221B4951F8222043B100200C2B0DD03B
:101970007047164A1268C2F30312F2E71046F5E701
:1019800014480022F2E714480022EFE70F4BDB680F
:1019900003F00303022B16D0032B00D10E4A0B4990
:1019A000C868C0F30210431CC868C0F3062002FBDD
:1019B00000F0B0FBF3F0CB68C3F3416301335B008D
:1019C000B0FBF3F0D4E7034AE9E700BF00100240A0
:1019D000885500080024F40000127A00002800F066
:1019E000F182F0B583B00446964B9D6805F00C0576
:1019F000DE6806F00306036813F0100F5AD0E5B155
:101A00000C2D18D0A369002B00F0BB808D4A136801
:101A100043F001031360FFF725FF0746894B1B685E
:101A200013F0020F40F09A80FFF71CFFC01B022842
:101A3000F4D90320D1E2012EE4D1824B1B6813F0CC
:101A4000020F03D0A369002B00F0BE82206A7D4BF9
:101A50001B6813F0080F5BD07A4B1B6803F0F00390
:101A600098425CD8774B1A6842F008021A601A68EC
:101A700022F0F002216A0A431A605A6822F47F4277
:101A8000E16942EA01225A60002D60D0FFF74CFF65
:101A90006C4B9B68C3F303136B4AD35C03F01F03C7
:101AA000D8406A4B18606A4B1868FFF765FE00283B
:101AB00040F09382236813F0010F00F08180082D1D
:101AC00075D00C2D71D06368B3F5803F00F097801E
:101AD000B3F5A02F00F099805A4B1A6822F4803297
:101AE0001A601A6822F480221A606368002B00F0E2
:101AF0009980FFF7B7FE0746524B1B6813F4003F6F
:101B00005ED1FFF7AFFEC01B6428F5D9032064E265
:101B10004C4BD3F894301B0903F0F003A0E7FFF718
:101B2000BBFE002840F05282464B1A6842F0080281
:101B30001A601A6822F0F002216A0A431A605A6891
:101B400022F47F42E16942EA01225A609EE7206A5C
:101B5000FFF7A2FE002899D001203EE2394B1A6817
:101B600042F008021A601A6822F0F002216A0A4361
:101B70001A605A6822F47F42E16942EA01225A60FF
:101B800098E7304A136823F001031360FFF76AFEF9
:101B900007462C4B1B6813F0020F8BD0FFF762FE39
:101BA000C01B0228F5D9032017E2032E8BD1254B49
:101BB0001B6813F4003F03D06368002B00F0088219
:101BC000236813F0020F58D0042D45D00C2D41D0BE
:101BD000E368002B77D01B4A136843F480731360CB
:101BE000FFF740FE0646174B1B6813F4806F61D168
:101BF000FFF738FE801B0228F5D90320EDE1114ADA
:101C0000136843F4803313606FE703F18043A3F557
:101C10003C331A6842F480221A601A6842F4803217
:101C20001A6062E7FFF71EFE0746064B1B6813F4B7
:101C3000003FC5D0FFF716FEC01B6428F5D903206E
:101C4000CBE100BF001002407055000800000020EA
:101C500008000020022EBBD1A34B1B6813F4806F39
:101C600003D0E368002B00F0B5819F4A536823F04E
:101C7000F853216943EA01635360236813F0080FA6
:101C80004CD063699BB3984AD2F8943043F0010377
:101C9000C2F89430FFF7E6FD0646934BD3F8943034
:101CA00013F0020F3AD1FFF7DDFD801B0228F4D9B3
:101CB000032092E18C4A536823F0F853216943EAE8
:101CC00001635360D9E7884A136823F48073136073
:101CD000FFF7C8FD0646844B1B6813F4806FCCD019
:101CE000FFF7C0FD801B0228F5D9032075E17E4A6D
:101CF000D2F8943023F00103C2F89430FFF7B2FD1C
:101D00000646794BD3F8943013F0020F06D0FFF754
:101D1000A9FD801B0228F4D903205EE1236813F09B
:101D2000040F7AD0704B9B6D13F0805F36D16E4BF1
:101D30009A6D42F080529A659B6D03F08053019337
:101D4000019B0126694B1B6813F4807F28D0A36890
:101D5000012B39D0052B3FD0634BD3F8902022F0D4
:101D60000102C3F89020D3F8902022F00402C3F8B7
:101D70009020A368002B3DD0FFF774FD07465A4B17
:101D8000D3F8903013F0020F46D1FFF76BFDC01B64
:101D900041F288339842F2D903201EE10026D1E7B0
:101DA000524A136843F480731360FFF75BFD0746E4
:101DB0004E4B1B6813F4807FC9D1FFF753FDC01B46
:101DC0000228F5D9032008E1474AD2F8903043F0C1
:101DD0000103C2F89030CCE7434BD3F8902042F097
:101DE0000402C3F89020D3F8902042F00102C3F817
:101DF0009020BEE7FFF736FD07463B4BD3F8903007
:101E000013F0020F08D0FFF72DFDC01B41F28833FD
:101E10009842F2D90320E0E0EEB9A36A002B00F06B
:101E2000DB80022B1DD00C2D00F0DD802E4A1368C4
:101E300023F080731360FFF715FD04462A4B1B68DF
:101E400013F0007F00F0B780FFF70CFD001B0228A5
:101E5000F4D90320C1E0244A936D23F080539365A5
:101E6000DBE7214BDB6803F00301E26A91420FD00C
:101E70000C2D00F0B4801C4B1B6813F0806F40F0F9
:101E8000B080194B1B6813F0805F31D00120A4E0B3
:101E900003F07002216B0139B2EB011FE8D103F4AA
:101EA000FE42616BB2EB012FE2D103F40031A26B71
:101EB000073A18BF01229142DAD103F4C001E26B64
:101EC0005208013AB1EB425FD2D103F0C063226CF9
:101ED0005208013AB3EB426FCAD1034B1B6813F0AF
:101EE000007F4ED0002078E00010024000700040DB
:101EF0003E4A136823F080731360FFF7B3FC054676
:101F00003A4B1B6813F0007F06D0FFF7ABFC401B79
:101F10000228F5D9032060E0344AD36834491940D7
:101F2000E36A206B013843EA0013606B43EA002345
:101F3000E06B4008013843EA4053206C4008013808
:101F400043EA4063A06B000943EA40430B43D3607C
:101F5000136843F080731360D36843F08073D360D9
:101F6000FFF780FC0446214B1B6813F0007F06D16D
:101F7000FFF778FC001B0228F5D903202DE0002094
:101F80002BE01A4B1A6842F080721A60DA6842F04D
:101F90008072DA60FFF766FC0446144B1B6813F08E
:101FA000007F06D1FFF75EFC031B022BF5D903204F
:101FB00013E0002011E00D4AD1680E4B0B40D360B6
:101FC00000200AE001207047012006E0012004E023
:101FD000012002E0012000E0002003B0F0BD01205C
:101FE000FBE70120F9E70120F7E700BF00100240FE
:101FF0008C809DF9FCFFEEFE002800F0AF8070B5EC
:102000000D460446594B1B6803F007038B420BD265
:10201000564A136823F007030B431360136803F059
:1020200007038B4240F09C80236813F0020F0CD012
:10203000A2684F4B9B6803F0F0039A4205D94C49C4
:102040008B6823F0F0031A438A60236813F0010FB2
:1020500039D06368032B09D0022B26D063BB444AD6
:10206000126812F0020F06D1012076E0404A126891
:1020700012F0007F76D03E498A6822F003021343B3
:102080008B60FFF7EFFB0646394B9B6803F00C03B0
:102090006268B3EB820F16D0FFF7E4FB801B41F2BE
:1020A00088339842F0D9032057E0314A126812F47D
:1020B000003FE0D1012050E02D4A126812F4806FF9
:1020C000D9D1012049E0236813F0020F0CD0A26897
:1020D000274B9B6803F0F0039A4205D224498B6892
:1020E00023F0F0031A438A60204B1B6803F00703B8
:1020F000AB420AD91D4A136823F007032B43136030
:10210000136803F00703AB422ED1236813F0040FCA
:1021100006D0174A936823F4E063E1680B439360A9
:10212000236813F0080F07D0114A936823F4605313
:10213000216943EAC1039360FFF7F6FB0C4B9B68F0
:10214000C3F303130B4AD35C03F01F03D8400A4BBD
:1021500018600A4B1868FFF70FFB70BD012070472D
:102160000120FAE70120F8E70120F6E7002002400D
:1021700000100240705500080000002008000020F8
:10218000014B1868704700BF0000002008B5FFF73A
:10219000F7FF054B9B68C3F30223044AD35C03F0AB
:1021A0001F03D84008BD00BF001002408055000842
:1021B00008B5FFF7E5FF054B9B68C3F3C223044A4C
:1021C000D35C03F01F03D84008BD00BF00100240DD
:1021D000805500080F2303600B4B9A6802F003023E
:1021E00042609A6802F0F00282609A6802F4E0624B
:1021F000C2609B68DB0803F4E0630361034B1B6868
:1022000003F007030B6070470010024000200240FB
:10221000F8B504460F46594BDB6813F0030F18D08E
:10222000564BDB6803F003030268934202D001259A
:102230002846F8BD002A00F09E80504BDB68C3F3AF
:10224000021301334268934201D00125F0E70025D3
:1022500009E00368022B57D0032B5CD0012B42D03E
:102260000125002DE4D1454A136823F080631360F3
:10227000FFF7F8FA0646414B1B6813F0006F05D0D4
:10228000FFF7F0FA831B022BF5D90325002DCFD1E0
:10229000002F4ED139490B6923F41F3323F44073C7
:1022A000A068E2681209520442EA002213430B615B
:1022B000324A136843F080631360FFF7D3FA06468F
:1022C0002E4B1B6813F0006F05D1FFF7CBFA831B71
:1022D000022BF5D90325002DAAD1284A1369A1693B
:1022E0000B431361A4E7254A126812F0020F1ED0B7
:1022F0002248C26822F073026168013943EA01137F
:102300001343C3600025ACE71C4A126812F4806FC7
:10231000EED10125A5E7194A126812F4003FE7D172
:10232000164A126812F4802FE2D1012599E701259F
:1023300097E7012F0FD01148026922F0C06222F402
:10234000FE42A16863695B08013B5B0643EA012327
:1023500013430361ACE70948026922F4C00222F486
:10236000FE42A16823695B08013B5B0543EA012348
:10237000134303619CE701255AE700BF00100240A8
:10238000F8B504460F46504BDB6813F0030F18D026
:102390004D4BDB6803F003030268934202D0012532
:1023A0002846F8BD002A00F08C80474BDB68C3F359
:1023B000021301334268934201D00125F0E7002562
:1023C00009E00368022B57D0032B5CD0012B42D0CD
:1023D0000125002DE4D13C4A136823F0805313609B
:1023E000FFF740FA0646384B1B6813F0005F05D034
:1023F000FFF738FA831B022BF5D90325002DCFD127
:10240000002F4ED130494B6923F41F3323F440731E
:10241000A068E2681209520442EA002213434B61A9
:10242000294A136843F080531360FFF71BFA0646EE
:10243000254B1B6813F0005F05D1FFF713FA831BD0
:10244000022BF5D90325002DAAD11F4A53696169D2
:102450000B435361A4E71C4A126812F0020F1ED00E
:102460001948C26822F073026168013943EA011316
:102470001343C3600025ACE7134A126812F4806F5F
:10248000EED10125A5E7104A126812F4003FE7D10A
:102490000D4A126812F4802FE2D1012599E7012537
:1024A00097E70948426922F0C06222F4FE42A1681F
:1024B00023695B08013B5B0643EA01231343436145
:1024C000AEE701256CE700BF001002402DE9F041A6
:1024D00082B00446036813F4006F33D0436EB3F543
:1024E000000F1FD00CD823B3B3F5800F05D1002106
:1024F0002030FFF745FF064620E001273E4623E057
:10250000B3F5400F0BD10026604AD2F8883023F48F
:102510004003616E0B43C2F88830002714E00127A6
:102520003E4611E0594AD36843F48033D360002615
:10253000EAE700210430FFF76BFE0646002EE3D0E9
:10254000374601E000273E46236813F4805F30D011
:10255000A36EB3F1007F1FD00DD81BB3B3F1807F02
:1025600006D1002104F12000FFF70AFF064605E02E
:1025700001273E461DE0B3F1407F0AD1C6B9434A68
:10258000D2F8883023F04073A16E0B43C2F8883034
:102590000FE001273E460CE03C4AD36843F4803309
:1025A000D360EBE70021201DFFF732FE0646E5E78A
:1025B0003746236813F4003F71D0344B9B6D13F002
:1025C000805F4ED1314B9A6D42F080529A659B6D7F
:1025D00003F080530193019B4FF001082C4A1368CC
:1025E00043F480731360FFF73DF90546284B1B68E1
:1025F00013F4807F05D1FFF735F9401B0228F5D988
:102600000326002E46D1214BD3F8903013F44073AB
:1026100016D0D4F884209A4212D01C4AD2F89030B6
:1026200023F44073D2F8901041F48031C2F8901036
:10263000D2F8901021F48031C2F89010C2F8903096
:1026400013F0010F10D1002E40F027810F4AD2F86D
:10265000903023F44073D4F884100B43C2F89030C8
:1026600019E04FF00008B9E7FFF7FCF80546074B03
:10267000D3F8903013F0020FE5D1FFF7F3F8401BC9
:1026800041F288339842F2D90326DCE70010024079
:10269000007000403746B8F1000F40F00081236819
:1026A00013F0010F08D09D4AD2F8883023F00303BD
:1026B000A16B0B43C2F88830236813F0020F08D0D7
:1026C000964AD2F8883023F00C03E16B0B43C2F832
:1026D0008830236813F0040F08D0904AD2F888306D
:1026E00023F03003216C0B43C2F88830236813F0C9
:1026F000080F08D0894AD2F8883023F0C003616CF3
:102700000B43C2F88830236813F0100F08D0834AB7
:10271000D2F8883023F44073A16C0B43C2F88830A0
:10272000236813F0200F08D07C4AD2F8883023F4B5
:102730004063E16C0B43C2F88830236813F4007FD8
:1027400008D0764AD2F8883023F44023E16D0B4359
:10275000C2F88830236813F4806F08D06F4AD2F82B
:10276000883023F44013216E0B43C2F8883023686D
:1027700013F0400F08D0694AD2F8883023F4405350
:10278000216D0B43C2F88830236813F0800F08D006
:10279000624AD2F8883023F44043616D0B43C2F89B
:1027A0008830236813F4807F08D05C4AD2F88830E0
:1027B00023F44033A16D0B43C2F88830236813F42F
:1027C000005F0FD0554AD2F8883023F04063E16EA5
:1027D0000B43C2F88830E36EB3F1006F65D0B3F1FC
:1027E000806F67D0236813F4002F0FD04B4AD2F8C4
:1027F000883023F04063216F0B43C2F88830236F89
:10280000B3F1006F5ED0B3F1806F60D0236813F432
:10281000802F0FD0414AD2F8883023F04063616F97
:102820000B43C2F88830636FB3F1006F57D0B3F138
:10283000806F59D0236813F4804F0FD0374AD2F8F5
:10284000883023F04053A16F0B43C2F88830A36F48
:10285000B3F1805F50D0B3F1005F55D0236813F41B
:10286000004F08D02D4AD2F8883023F08043E16F22
:102870000B43C2F88830236813F4803F09D0274AFD
:10288000D2F8883023F00043D4F880100B43C2F80C
:102890008830384602B0BDE8F0813746FBE61F4A73
:1028A000936D23F080539365F9E6D36843F4801366
:1028B000D36097E70121201DFFF7AAFC002891D0E3
:1028C00007468FE7D36843F48013D3609EE7012166
:1028D000201DFFF79DFC002898D0074696E7D36897
:1028E00043F48013D360A5E70121201DFFF790FC7E
:1028F00000289FD007469DE70221201DFFF788FC96
:102900000028ABD00746A9E7022104F12000FFF719
:1029100037FD0028A2D00746A0E700BF0010024004
:10292000F0B583B000236BE085685E000324B440FB
:1029300025EA0405CC68B4402C438460456825EA48
:102940000C054C68C4F300149C402C43446069E0BF
:10295000C56A25EA0C0CC4F3C0049C4044EA0C048C
:10296000C46265E0DD08083550F8256003F007040F
:102970004FEA840C0F2404FA0CF426EA040E0C69C6
:1029800004FA0CF444EA0E0440F8254067E00624FB
:1029900000E0002404FA0EF42C430CF1020C5C4D10
:1029A00045F82C405B4CA568D44325EA02064F68E5
:1029B00017F4801F01D042EA0506564DAE60ED685F
:1029C00004EA05064F6817F4001F01D042EA050625
:1029D000504DEE606D6804EA05064F6817F4003F3D
:1029E00001D042EA05064B4D6E602D682C404E68C2
:1029F00016F4803F01D042EA0504464A14600133D0
:102A00000A6832FA03F400F081804FF0010C0CFAEE
:102A100003FC1CEA0202F2D04C6804F00304013CFF
:102A2000012C81D94C6804F0030EBEF1030F8FD046
:102A30004C6804F00304032C0CD0C4685D004FF014
:102A4000030C0CFA05FC24EA0C0C8C68AC4044EA3C
:102A50000C04C4604C6804F00304022C82D00468A7
:102A60004FEA430E4FF0030C0CFA0EFC24EA0C0C58
:102A70004C6804F0030404FA0EF444EA0C04046005
:102A80004C6814F4403FBAD0234C256E45F0010544
:102A90002566246E04F001040194019C4FEA930C16
:102AA0000CF102051A4C54F8255003F003044FEAC8
:102AB000840E0F2404FA0EF425EA0405B0F1904FB9
:102AC0003FF467AF154CA04216D004F58064A042D5
:102AD00014D004F58064A04212D004F58064A042B2
:102AE00010D004F58064A0420ED004F58064A042AA
:102AF0003FF44DAF07244DE701244BE7022449E79B
:102B0000032447E7042445E7052443E703B0F0BD69
:102B10000000014000040140001002400004004891
:102B20000AB18161704781627047436901EA03021B
:102B300021EA030141EA024181617047024B1868B2
:102B400000F4C060704700BF00700040B0F5007F27
:102B50000FD01F4B1B6803F4C063B3F5806F34D0F4
:102B60001B4A136823F4C06343F48063136000209E
:102B70007047174B1B6803F4C063B3F5007F20D088
:102B8000134A136823F4C06343F400731360114BBA
:102B90001B68322202FB03F30F4AA2FB03239B0CA8
:102BA000013300E0013B0A4A526912F4806F01D000
:102BB000002BF7D1064B5B6913F4806F03D1002023
:102BC000704700207047032070470020704700BF07
:102BD000007000400000002083DE1B43074AD368DA
:102BE00023F4E0631B041B0C000200F4E0600343C9
:102BF00043F0BF6343F40033D360704700ED00E05F
:102C000000B5194BDB68C3F30223C3F1070CBCF119
:102C1000040F28BF4FF0040C03F1040EBEF1060FA1
:102C200018D9033B4FF0FF3E0EFA0CFC21EA0C01D1
:102C300099400EFA03F322EA0303194300280BDB41
:102C40000901C9B200F1604000F5614080F800134D
:102C50005DF804FB0023E5E700F00F000901C9B2AD
:102C6000024B1954F4E700BF00ED00E014ED00E062
:102C7000002807DB00F01F02400901239340024AAD
:102C800042F82030704700BF00E100E070470000CC
:102C900090F83D30DBB2012B36D1022380F83D3075
:102CA0000268D36843F00103D3600368194A934272
:102CB0001CD0B3F1804F19D0A2F59432934215D0B5
:102CC00002F58062934211D002F5806293420DD0EA
:102CD00002F59432934209D002F54062934205D046
:102CE0001A6842F001021A600020704799680A4A87
:102CF0000A40062A0AD0B2F5803F09D01A6842F08D
:102D000001021A60002070470120704700207047C0
:102D100000207047002C01400700010070477047F9
:102D20007047704710B5044603681A6912F0020F25
:102D300011D0DA6812F0020F0DD06FF002021A61A2
:102D40000123037703689B6913F0030F79D0FFF722
:102D5000E6FF0023237723681A6912F0040F12D0CC
:102D6000DA6812F0040F0ED06FF004021A61022329
:102D7000237723689B6913F4407F68D02046FFF7D0
:102D8000CEFF0023237723681A6912F0080F12D0B0
:102D9000DA6812F0080F0ED06FF008021A610423EF
:102DA00023772368DB6913F0030F57D02046FFF722
:102DB000B6FF0023237723681A6912F0100F12D090
:102DC000DA6812F0100F0ED06FF010021A610823AB
:102DD00023772368DB6913F4407F46D02046FFF752
:102DE0009EFF0023237723681A6912F0010F03D096
:102DF000DA6812F0010F3FD123681A6912F0800FD0
:102E000003D0DA6812F0800F3DD123681A6912F4FA
:102E1000807F03D0DA6812F0800F3BD123681A69F3
:102E200012F0400F03D0DA6812F0400F39D1236856
:102E30001A6912F0200F03D0DA6812F0200F37D190
:102E400010BDFFF76BFF2046FFF76AFF81E72046C2
:102E5000FFF764FF2046FFF763FF92E72046FFF786
:102E60005DFF2046FFF75CFFA3E72046FFF756FF14
:102E70002046FFF755FFB4E76FF001021A612046C4
:102E8000FEF782FBB8E76FF080021A61204600F07F
:102E9000ACF8BAE76FF480721A61204600F0A6F829
:102EA000BCE76FF040021A612046FFF73AFFBEE729
:102EB0006FF020021A61204600F096F8C0E700008B
:102EC0000368304A904212D0B0F1804F0FD0A2F583
:102ED000943290420BD002F58062904207D002F506
:102EE0008062904203D002F59432904203D123F0E5
:102EF00070034A681343234A90421ED0B0F1804FBA
:102F00001BD0A2F59432904217D002F58062904215
:102F100013D002F5806290420FD002F594329042B5
:102F20000BD002F54062904207D002F580629042D9
:102F300003D002F58062904203D123F44073CA6843
:102F4000134323F080034A69134303608B68C36211
:102F50000B6883620B4B98420FD003F500639842D5
:102F60000BD003F54063984207D003F58063984285
:102F700003D003F58063984201D10B6903630123F9
:102F800043617047002C014060B310B5044690F8CF
:102F90003D3013B3022384F83D30214651F8040B31
:102FA000FFF78EFF012384F8483084F83E3084F820
:102FB0003F3084F8403084F8413084F8423084F85F
:102FC000433084F8443084F8453084F8463084F83F
:102FD000473084F83D30002010BD80F83C30FFF7CA
:102FE00055FED7E7012070477047704770470000D3
:102FF00010B50446016883680269134342691343AC
:10300000C269134308688E4A024013430B6022686A
:10301000536823F44053E1680B435360A16922686D
:10302000884B9A4201D0236A1943936823F4306392
:103030000B4393602368844A934210D0834A93429F
:1030400021D0834A934237D0824A93425CD0824A4D
:1030500093426BD07B4A93427DD010223AE002F536
:103060005842D2F8882002F00302032A09D8DFE888
:1030700002F00204870601222CE004222AE0082242
:1030800028E0102226E002F5E632D2F8882002F08D
:103090000C020C2A0ED8DFE802F0070D0D0D090D09
:1030A0000D0D750D0D0D0B00002213E0042211E033
:1030B00008220FE010220DE002F5E432D2F8882059
:1030C00002F03002202A5FD01AD8002A5ED0102ADF
:1030D0005ED104225B498B4276D0E069B0F5004FA7
:1030E00000F0A380082A00F20E81DFE812F0DD0074
:1030F000F300DB000C01F6000C010C010C01F900DF
:10310000302A47D10822E5E702F5E232D2F88820DA
:1031100002F0C002802A3FD004D8FAB3402A3FD13F
:103120000422D7E7C02A3DD10822D3E702F5E032D6
:10313000D2F8882002F44072B2F5007F34D005D86E
:10314000A2B3B2F5807F33D10422C3E7B2F5407F4A
:1031500030D10822BEE702F5C832D2F8882002F446
:103160004062B2F5006F27D005D83AB3B2F5806F50
:1031700026D10422AEE7B2F5406F23D10822A9E799
:103180000222A7E70222A5E70222A3E70022A1E785
:1031900010229FE710229DE702229BE7002299E779
:1031A000102297E7102295E7022293E7002291E789
:1031B00010228FE710228DE702228BE7002289E799
:1031C000102287E7102285E7082A00F28C80DFE8CA
:1031D00002F0088A2A8A278A8A8A05004FF400406A
:1031E00003E0FEF7D3FF00287FD0626802EB4203C2
:1031F00083427CD8B0EB023F7BD8010E000253081B
:10320000C0184FF0000341F10001FDF77BF8A0F575
:103210004072124B9A426ED82368D860002055E065
:10322000FEF782FBDFE70E48DFE7082A65D8DFE814
:1032300002F019330564366464641D00084815E023
:10324000F369FFEF00800040003801400044004077
:1032500000480040004C004000500040FFFC0F00C0
:103260000024F400FEF792FF002848D0626853085B
:1032700003EB4000B0FBF2F0A0F110024FF6EF7349
:103280009A423ED883B223F00F03C0F342001843A2
:103290002368D860002019E0FEF78AFFE4E7FEF714
:1032A00043FBE1E71B4802E0FEF770FF68B3636889
:1032B00000EB5300B0FBF3F0A0F110024FF6EF73F8
:1032C0009A4224D8236880B2D86000200023636625
:1032D000A36610BDFEF76CFFE8E7FEF725FBE5E708
:1032E0004FF40040E3E70120F0E70020EEE7012083
:1032F000ECE70120EAE70120E8E70120E6E700200B
:10330000E4E70120E2E70120E0E70020DEE701201A
:10331000DCE700BF0024F400436A13F0010F06D07D
:103320000268536823F40033816A0B435360436A95
:1033300013F0020F06D00268536823F48033C16A89
:103340000B435360436A13F0040F06D002685368BE
:1033500023F48023016B0B435360436A13F0080F7F
:1033600006D00268536823F40043416B0B4353605B
:10337000436A13F0100F06D00268936823F4805359
:10338000816B0B439360436A13F0200F06D00268F1
:10339000936823F40053C16B0B439360436A13F0AB
:1033A000400F0AD00268536823F48013016C0B436A
:1033B0005360036CB3F5801F0BD0436A13F0800F8A
:1033C00006D00268536823F40023816C0B435360DA
:1033D00070470268536823F4C003416C0B43536089
:1033E000EBE72DE9F84305460F4616469946DDF80A
:1033F00020802C68E46937EA04030CBF4FF0010C0D
:103400004FF0000CB44553D1B8F1FF3FF1D0FEF7B7
:1034100029FAA0EB090040452DD8B8F1000F2AD0B9
:103420002B681A6812F0040FE3D0DA6912F4006F07
:10343000DFD04FF400621A622A6852E8003F23F49A
:10344000D07342E800310029F6D12A6802F108035E
:1034500053E8003F23F00103083242E8003100291D
:10346000F3D12023AB67EB67C5F88030002385F8E4
:10347000743003201DE02A6852E8003F23F4D07323
:1034800042E800310029F6D12A6802F1080353E826
:10349000003F23F00103083242E800310029F3D154
:1034A0002023AB67EB67002385F87430032000E02E
:1034B0000020BDE8F88330B583B004460023C0F88F
:1034C0008030FEF7CFF905462268126812F0080F27
:1034D0000DD123681B6813F0040F16D12023A367B6
:1034E000E3670020206684F8740003B030BD6FF0FD
:1034F0007E430093034600224FF400112046FFF75D
:1035000070FF0028E5D00320EFE76FF07E430093C3
:103510002B4600224FF480012046FFF762FF00286F
:10352000DCD00320E1E768B310B50446836F03B332
:103530002423A3672268136823F001031360204645
:10354000FFF756FD012813D0636ABBB922685368A0
:1035500023F4904353602268936823F02A03936016
:103560002268136843F0010313602046FFF7A3FFAE
:1035700010BD80F87430FEF7BBF8D9E72046FFF79E
:10358000CBFEE3E70120704700F1080343604FF0F2
:10359000FF328260C3600361002303607047002331
:1035A0000361704743684B609A688A605160996014
:1035B0000861036801330360704730B40D68B5F1EA
:1035C000FF3F11D000F108031C465B681A68AA424D
:1035D000FAD963684B6099608C6061600861036828
:1035E0000133036030BC70470469F2E70369416846
:1035F00082688A60416851605A68824206D000221F
:1036000002611A68013A1A601868704782685A6045
:10361000F5E710B5044601F0B5FCA26BE36B9A42E6
:1036200004D0002401F0D0FC204610BD0124F9E7AD
:1036300010B5044601F0A6FCA36B23B9012401F0E8
:10364000C3FC204610BD0024F9E770B504461546BA
:10365000866B026C5AB903681BB100200136A66361
:1036600070BD806800F0D4FF0023A360F6E76DB959
:103670004068FCF7ADFD226C636813446360A26888
:10368000934219D3236863602846E7E7C068FCF7D4
:103690009FFD226C5142E3689B1AE36022689342CB
:1036A00002D2A3680B44E360022D01D00020D5E7CD
:1036B00026B1013E0020D1E72846CFE70020CDE724
:1036C0000346026C6AB110B50846D9681144D96046
:1036D0009C68A14201D31968D960D968FCF778FDCC
:1036E00010BD704738B5054601F04CFC95F84540D3
:1036F00064B201E0013C64B2002C0ADD6B6A43B1A4
:1037000005F1240000F0DAFE0028F3D000F06AFF93
:10371000F0E7FF2385F8453001F056FC01F032FC5C
:1037200095F8444064B201E0013C64B2002C0ADD2B
:103730002B6943B105F1100000F0C0FE0028F3D062
:1037400000F050FFF0E7FF2385F8443001F03CFC27
:1037500038BD38B5E0B10D46044601F013FC2368CE
:10376000E26B216C01FB0230A0600020A06363606B
:10377000013A02FB0133E360FF2384F8443084F80C
:103780004530FDB9236963B901F01EFC012038BD45
:103790004FF0500383F31188BFF36F8FBFF34F8F48
:1037A000FEE704F1100000F089FE0028ECD04FF095
:1037B000E0234FF08052C3F8042DBFF34F8FBFF3C7
:1037C0006F8FE1E704F11000FFF7DEFE04F1240043
:1037D000FFF7DAFED8E738B51D46049C0B4649B919
:1037E0002460E063236401212046FFF7B2FF84F8E0
:1037F0004C5038BD2260F4E740B94FF0500383F3DA
:103800001188BFF36F8FBFF34F8FFEE710B584B001
:103810001C46844653B192B189B94FF0500383F3EB
:103820001188BFF36F8FBFF34F8FFEE74FF0500348
:1038300083F31188BFF36F8FBFF34F8FFEE76AB139
:1038400050230393039B502B13D04FF0500383F36B
:103850001188BFF36F8FBFF34F8FFEE70029EFD0C2
:103860004FF0500383F31188BFF36F8FBFF34F8F77
:10387000FEE7039B012384F8463000949DF818303E
:103880006046FFF7A8FF204604B010BDF0B585B034
:10389000019288B10F461D460446B1B1022D20D1D8
:1038A000E36B012B1DD04FF0500383F31188BFF35E
:1038B0006F8FBFF34F8FFEE74FF0500383F31188F4
:1038C000BFF36F8FBFF34F8FFEE7036C002BE5D084
:1038D0004FF0500383F31188BFF36F8FBFF34F8F07
:1038E000FEE700F085FE064658B9019B002B48D044
:1038F0004FF0500383F31188BFF36F8FBFF34F8FE7
:10390000FEE700263DE02A4639462046FFF79DFEA9
:10391000636A7BB948B14FF0E0234FF08052C3F89F
:10392000042DBFF34F8FBFF36F8F01F04DFB0120CC
:1039300005B0F0BD04F1240000F0C0FD0028F4D073
:103940004FF0E0234FF08052C3F8042DBFF34F8FA8
:10395000BFF36F8FE9E701F037FB0020E8E702A82B
:1039600000F0F2FD012619E0002384F8443021E044
:10397000002384F8453023E02046FFF7B3FE00F033
:103980007DFC01F0FFFAA26BE36B9A42BBD3022DE0
:10399000B9D0019B002BDED0002EE0D001F014FB4B
:1039A00000F0D2FB01F0EEFA94F8442052B2B2F1EA
:1039B000FF3FD9D094F8452052B2B2F1FF3FD7D0A3
:1039C00001F002FB01A902A800F0CAFDD8B9204607
:1039D000FFF71FFE0028CFD0019904F1100000F07E
:1039E00039FD2046FFF77EFE00F048FC0028C8D1D4
:1039F0004FF0E0234FF08052C3F8042DBFF34F8FF8
:103A0000BFF36F8FBDE72046FFF76CFE00F036FC7A
:103A100000208DE72DE9F84390B10F4616461C466D
:103A20000546B1B1022C20D1EB6B012B1DD04FF01C
:103A3000500383F31188BFF36F8FBFF34F8FFEE7FF
:103A40004FF0500383F31188BFF36F8FBFF34F8F95
:103A5000FEE7036C002BE5D04FF0500383F3118891
:103A6000BFF36F8FBFF34F8FFEE701F0B1FBEFF3B2
:103A700011894FF0500383F31188BFF36F8FBFF3A9
:103A80004F8FAA6BEB6B9A4206D3022C04D0002016
:103A900089F31188BDE8F88395F845804FFA88F8D6
:103AA000AB6B224639462846FFF7CFFDB8F1FF3F02
:103AB00006D008F101035BB285F845300120E7E745
:103AC0006B6A0BB90120E3E705F1240000F0F6FC76
:103AD00018B126B101203060DAE70120D8E70120D3
:103AE000D6E7F0B585B0019290B10F460446C1B15A
:103AF00000F07EFD064600BB019B002B5ED04FF020
:103B0000500383F31188BFF36F8FBFF34F8FFEE72E
:103B10004FF0500383F31188BFF36F8FBFF34F8FC4
:103B2000FEE7036C002BE3D04FF0500383F31188C2
:103B3000BFF36F8FBFF34F8FFEE700263EE039469D
:103B40002046FFF7BDFD013DA563236923B901F0C0
:103B50003BFA012005B0F0BD04F1100000F0AEFC0E
:103B60000028F4D04FF0E0234FF08052C3F8042D2A
:103B7000BFF34F8FBFF36F8FE9E701F025FA002005
:103B8000E8E702A800F0E0FC012621E0002384F829
:103B9000443029E0002384F845302BE02046FFF72D
:103BA000A1FD00F06BFB09E02046FFF79BFD00F054
:103BB00065FB2046FFF73CFD00283FD101F0E2F90C
:103BC000A56B002DBBD1019B002BD6D0002ED8D0E9
:103BD00001F0FAF900F0B8FA01F0D4F994F84430A1
:103BE0005BB2B3F1FF3FD1D094F845305BB2B3F193
:103BF000FF3FCFD001F0E8F901A902A800F0B0FC26
:103C00000028D1D12046FFF713FD0028C6D0019926
:103C100004F1240000F01EFC2046FFF763FD00F0D5
:103C20002DFB0028CAD14FF0E0234FF08052C3F89B
:103C3000042DBFF34F8FBFF36F8FBFE7002089E7DD
:103C40000023072B0CD8074A52F833200AB101335E
:103C5000F7E7044A42F8331002EBC3035860704799
:103C6000704700BF3C05002070B504460D4616465F
:103C700001F088F994F844305BB2B3F1FF3F0DD006
:103C800094F845305BB2B3F1FF3F0BD001F09CF9E3
:103C9000A36B5BB12046FFF725FD70BD002384F8C0
:103CA0004430EDE7002384F84530EFE732462946FB
:103CB00004F1240000F0E6FBECE70000084B1B6871
:103CC0001B6823B9074B4FF0FF321A607047044B53
:103CD0001B68DB68DB685A68024B1A60704700BFDC
:103CE00080050020280A00202DE9F04780460D4677
:103CF00017469946089EDDF824A00A9C9200A5214B
:103D0000206B01F0EDFA236B07F18042013A03EBDF
:103D1000820727F00707B5B34FF0000CBCF10F0F77
:103D20000BD815F80C2004EB0C0383F8342015F89D
:103D30000C3013B10CF1010CF0E7002384F8433090
:103D4000372E00D93726E662E66400252565201D5A
:103D5000FFF725FC04F11800FFF721FC2461C6F1F0
:103D60003806A6616462656584F858504A46414643
:103D7000384601F0DDF82060BAF1000F01D0CAF832
:103D80000040BDE8F087002384F83430D8E7000015
:103D900038B5002407E004EB840293000E48184471
:103DA000FFF7F2FB0134372CF5D90C4D2846FFF70D
:103DB000EBFB0B4C2046FFF7E7FB0A48FFF7E4FB61
:103DC0000948FFF7E1FB0948FFF7DEFB084B1D60E0
:103DD000084B1C6038BD00BF88050020FC0900208E
:103DE000100A0020340A0020600A00204C0A00203B
:103DF000800500208405002010B5044601F0C2F8BB
:103E0000224A136801331360214B1B685BB1214BBD
:103E10001B686BB91E4B1B68DA6AE36A9A4207D8C3
:103E20001B4B1C6004E01A4B1C601368012B29D04B
:103E3000194A1368013313606364E06A174B1B6807
:103E4000984201D9154B186000EB8000211D144BDE
:103E500003EB8000FFF7A6FB01F0B6F80D4B1B68E3
:103E60007BB10B4B1B68DA6AE36A9A4209D24FF0C6
:103E7000E0234FF08052C3F8042DBFF34F8FBFF300
:103E80006F8F10BDFFF784FFD2E700BFE809002065
:103E90007C050020480A0020F4090020F8090020D1
:103EA0008805002010B5044690F8593063B1012B05
:103EB00011D0022B0ED04FF0500383F31188BFF3C3
:103EC0006F8FBFF34F8FFEE7006B00F0B5FF20460A
:103ED00000F0B2FF10BD00F0AFFFFBE70F4B1B6817
:103EE000D3B110B501F04EF80D4BDB68DC68201D36
:103EF000FFF77CFB0B4A1368013B1360074A13680A
:103F0000013B136001F060F82046FFF7CBFF034B45
:103F10001B68002BE6D110BD704700BFEC090020E4
:103F2000600A0020E809002008B5FFF7D7FF074B1B
:103F30001B68012BF9D94FF0E0234FF08052C3F8F2
:103F4000042DBFF34F8FBFF36F8FEEE7880500207E
:103F500070B504460D46174B1E68174B18680430A1
:103F6000FFF744FBB4F1FF3F0DD03444124B1B6804
:103F70005C60A64210D9114B18680F4B19680431C8
:103F8000FFF71BFB70BD002DEFD00B4B1968043100
:103F90000B48FFF707FBF5E70A4B1868064B196853
:103FA0000431FFF70AFB084B1B68A342EAD9064B12
:103FB0001C60E7E7740A00207C05002084050020CF
:103FC0004C0A002080050020280A002030B587B068
:103FD0000B9C7CB10C9DB5B15C250495049D5C2DBA
:103FE0001AD04FF0500383F31188BFF36F8FBFF3E4
:103FF0004F8FFEE74FF0500383F31188BFF36F8FAD
:10400000BFF34F8FFEE74FF0500383F31188BFF3E8
:104010006F8FBFF34F8FFEE7049D0C9D2C6302242E
:1040200085F8594000240394029505AC01940A9C3C
:104030000094FFF759FE0C98FFF7DEFE059807B0D5
:1040400030BD2DE9F04385B00746884614461E462C
:10405000900000F073FE00B381465C2000F06EFE1D
:104060000546B0B1C0F83090E5B1002385F859306D
:10407000039302950D9B01930C9B009333462246BC
:1040800041463846FFF730FE2846FFF7B5FE0120CF
:1040900005E0484600F0D0FEE6E74FF0FF3005B0FF
:1040A000BDE8F0834FF0FF30F9E7000010B588B0AD
:1040B00000240594069407AA06A905A800F0C0FDEF
:1040C000059B0293069B019300942346079A184987
:1040D0001848FFF77BFF184B186040B100F04CFB0D
:1040E000012806D0B0F1FF3F18D008B010BD002065
:1040F000F6E74FF0500383F31188BFF36F8FBFF3E0
:104100004F8F0E4B4FF0FF321A600D4B01221A6099
:104110000C4B00221A6000F0CFFFE6E74FF050038F
:1041200083F31188BFF36F8FBFF34F8FFEE700BF9C
:10413000B8550008293F0008240A0020280A00205A
:10414000480A0020740A0020024A136801331360F1
:10415000704700BFF0090020014B1868704700BF8E
:10416000740A0020F8B53A4B1B68002B69D1394B13
:104170001D6801351D60C5B9374B1B681B6843B10D
:104180004FF0500383F31188BFF36F8FBFF34F8F4E
:10419000FEE7314A1168314B186810601960304AE7
:1041A000136801331360FFF789FD2E4B1B68AB4288
:1041B0003DD900272C4B1B68DB6A03EB83039A0075
:1041C0002A4B9B58012B00D90127294B1B68002B38
:1041D0003CD001273AE001271F4B1B681B6843B303
:1041E0001D4B1B68DB68DC6863689D4226D3261D77
:1041F0003046FFF7FBF9A36A1BB104F11800FFF783
:10420000F5F9E36A1B4A1268934201D9194A13600F
:1042100003EB83039A00314614481044FFF7C2F9B8
:10422000E26A114B1B68DB6A9A42D4D2D4E70027BA
:10423000D2E70C4B4FF0FF321A60BBE7094A13601C
:10424000B8E70D4A13680133136000273846F8BDFC
:10425000F0090020740A0020800500208405002059
:104260002C0A0020280A00207C0500208805002058
:10427000780A0020F8090020300A002038B5354BB4
:104280001B6843B94FF0500383F31188BFF36F8F5E
:10429000BFF34F8FFEE700F075FE2E4B1A68013A10
:1042A0001A601B68002B4FD12B4B1B680BB90024E5
:1042B0004BE00024294B1B681BB3284BDB68DC68F0
:1042C00004F11800FFF792F9251D2846FFF78EF933
:1042D000E06A234B1B68984201D9214B186000EB20
:1042E000800029461F4B03EB8000FFF75BF9E26A71
:1042F0001D4B1B68DB6A9A42DCD31C4B01221A60FF
:10430000D8E70CB1FFF7DAFC194B1C6884B9174BDE
:104310001C68D4B14FF0E0234FF08052C3F8042D55
:10432000BFF34F8FBFF36F8F01240EE0013C07D026
:10433000FFF718FF0028F9D00C4B01221A60F5E7AF
:104340000B4B00221A60E2E7002400F03DFE2046FD
:1043500038BD00BFF0090020E8090020340A002021
:10436000F8090020880500207C050020780A00203C
:10437000300A002010B5A8B10446104B1B6843B1A9
:104380004FF0500383F31188BFF36F8FBFF34F8F4C
:10439000FEE7FFF7D9FE00212046FFF7D9FDFFF722
:1043A0006DFF48B94FF0E0234FF08052C3F8042D61
:1043B000BFF34F8FBFF36F8F10BD00BFF009002018
:1043C0001F4B1B681BB11F4B01221A6070471D4B0E
:1043D00000221A601C4B1B6803EB83018A001B49F7
:1043E0008A585AB90BB1013BF6E74FF0500383F3FB
:1043F0001188BFF36F8FBFF34F8FFEE703EB83008E
:1044000082000A4450684068506003EB830C4FEA16
:104410008C020832114488420BD003EB83029100D6
:104420000A4A0A445268D168094A1160064A136070
:104430007047406862469100044A0A445060ECE7C5
:10444000F0090020780A0020F809002088050020E3
:104450007C05002058B110B50C46094A1168183186
:10446000FFF7ABF801212046FFF772FD10BD4FF0BA
:10447000500383F31188BFF36F8FBFF34F8FFEE7B5
:104480007C05002038B570B10D4614460A4A116803
:104490001831FFF787F80CB14FF0FF352146284659
:1044A000FFF756FD38BD4FF0500383F31188BFF37B
:1044B0006F8FBFF34F8FFEE77C05002038B5C368D0
:1044C000DC6824B304F118052846FFF78FF8184B71
:1044D0001B682BBB251D2846FFF788F8E06A154BA3
:1044E0001B68984201D9134B186000EB80002946E5
:1044F000114B03EB8000FFF755F8E26A0F4B1B6886
:10450000DB6A9A4211D901200D4B186038BD4FF07B
:10451000500383F31188BFF36F8FBFF34F8FFEE714
:1045200029460848FFF73EF8E7E70020EEE700BF1E
:10453000F0090020F8090020880500207C050020F3
:10454000780A0020340A0020034B1B680360034BE9
:104550001B684360704700BF2C0A0020740A0020CB
:10456000F8B5C8B10C460546F9B100F00BFD1B4B80
:1045700019686B68C81A2268B2F1FF3F26D0184E3E
:1045800036682F68B74201D08B4224D9824215D8B1
:104590000023236001241AE04FF0500383F31188B5
:1045A000BFF36F8FBFF34F8FFEE74FF0500383F3DE
:1045B0001188BFF36F8FBFF34F8FFEE75B1A134471
:1045C00023602846FFF7C0FF002400E0002400F02D
:1045D000FBFC2046F8BD0124F9E700BF740A002067
:1045E0002C0A0020014B01221A607047780A002033
:1045F000054B1B6833B1054B1B680BB1002070479E
:104600000220704701207047480A0020F00900206E
:1046100000283BD038B504461E4B1B68834208D0A7
:104620004FF0500383F31188BFF36F8FBFF34F8FA9
:10463000FEE7036D43B94FF0500383F31188BFF3D6
:104640006F8FBFF34F8FFEE7013B0365C16AC26CFA
:1046500091421DD00BB1002038BD051D2846FEF744
:10466000C5FFE06CE062C0F13803A3610A4B1B6830
:10467000984201D9084B186000EB80002946074B8F
:1046800003EB8000FEF78EFF0120E5E70020704776
:104690000020E1E77C050020F809002088050020C3
:1046A000064B1A6813682BB90123036023B9D3683A
:1046B000186870470023F8E7002070477C0A002044
:1046C00008B54160006191420CD8D21A83699A42C0
:1046D00001D3012008BD011D094B1868FEF76DFFCD
:1046E0000020F7E79A4201D2994206D2011D054BFC
:1046F0001868FEF762FF0020ECE70120EAE700BF40
:10470000800A00207C0A002030B583B000F03AFC1B
:10471000114B1B681BB100F057FC03B030BD0F4DAF
:104720002846FEF731FF0E4C2046FEF72DFF0D4BBD
:104730001D600D4B1C60002300930C4B0C4A102194
:104740000A20FFF759F8044B18600028E3D0094904
:10475000FFF776FADFE700BFA00B0020240B002054
:10476000380B00207C0A0020800A0020500B00201B
:10477000840A0020C055000810B588B0FFF7C4FFB8
:10478000124B1B68CBB100240594069407AA06A916
:1047900005A800F061FA059B0293069B0193022392
:1047A00000932346079A0A490A48FFF70FFC0A4B71
:1047B000186010B1012008B010BD4FF0500383F312
:1047C0001188BFF36F8FBFF34F8FFEE7A00B002060
:1047D000C8550008DD4A0008A40B0020B8B19C466B
:1047E00003461848006858B300B585B0009101929F
:1047F000029305291CDCFFF7FBFE022810D00023E2
:104800001A4669460F480068FFF740F815E04FF078
:10481000500383F31188BFF36F8FBFF34F8FFEE711
:104820000023069A694607480068FFF72FF804E05E
:10483000002362466946FFF7EDF805B05DF804FB1A
:1048400000207047A00B002070B582B01B4B1B6886
:104850001A6862B3DB681E68DC68251D2846FEF70F
:10486000C5FE236A2046984794F8283013F0040FB9
:10487000ECD0A36933449E4207D263602461294689
:104880000E4B1868FEF799FEE0E7002100910B46F9
:1048900032462046FFF7A2FF0028D7D14FF0500341
:1048A00083F31188BFF36F8FBFF34F8FFEE7044A86
:1048B000106802490860136002B070BD7C0A0020D5
:1048C000800A002038B50546FFF746FC0446074B32
:1048D0001B68834205D800232B60044B1C602046D4
:1048E00038BDFFF7B1FF01232B60F6E74C0B00202A
:1048F00070B582B006460D4617490968C968CC688C
:10490000201DFEF773FE94F828C01CF0040F08D198
:104910002CF0010C84F828C0236A2046984702B086
:1049200070BDA16933462A4631442046FFF7C8FED0
:104930000028F1D0002100910B4632462046FFF7B7
:104940004DFF0028E8D14FF0500383F31188BFF3E7
:104950006F8FBFF34F8FFEE77C0A002070B582B0E7
:1049600006460C46FFF7F0FB01A8FFF7ABFF019BE3
:1049700033BB05460CB9B04219D224B1124A1268B1
:104980001268DAB901242246711B104B1868FFF730
:104990006BF9FFF773FCA8B94FF0E0234FF080529A
:1049A000C3F8042DBFF34F8FBFF36F8F0AE0FFF7FB
:1049B00065FC29463046FFF79BFF03E01C46E2E713
:1049C000FFF75CFC02B070BD800A0020A00B002045
:1049D00010B588B002E0049B002B0FDA002204A976
:1049E0003D4B1868FFF77DF8002873D0049B002B1F
:1049F000F1DA07990698059B9847ECE7069C6369EE
:104A000013B1201DFEF7F2FD03A8FFF75BFF049B27
:104A1000092BE3D8DFE803F005050530375005051D
:104A2000303794F8283043F0010384F82830059B90
:104A3000A169024619442046FFF742FE0028CDD066
:104A4000236A2046984794F8283013F0040FC5D005
:104A5000A269002100910B46059802442046FFF709
:104A6000BDFE0028BAD14FF0500383F31188BFF385
:104A70006F8FBFF34F8FFEE794F8283023F00103C8
:104A800084F82830AAE794F8283043F0010384F82A
:104A900028300599A16131B1034602460144204600
:104AA000FFF70EFE9AE74FF0500383F31188BFF330
:104AB0006F8FBFF34F8FFEE794F8283013F0020F8B
:104AC00004D023F0010384F8283087E7204600F063
:104AD000B3F983E708B010BDA00B002000B583B088
:104AE00001A8FFF7DDFD0199FFF738FFFFF770FF21
:104AF000F6E708B54FF0E0231B69FFF779FD0128C1
:104B000000D108BD00F0AEFAFBE70000EFF305832B
:104B10002BB9064B186828B901221A6070476FF04C
:104B2000050070474FF0FF30704700BF040E0020B3
:104B3000EFF3058373B90A4B1B68012B0DD110B538
:104B40000024084BDC77064B02221A60FFF7AEFA0E
:104B5000204610BD6FF0050070474FF0FF307047E2
:104B6000040E002000ED00E0F0B587B000240594AD
:104B7000EFF3058474BB68B322B31568936903B976
:104B800018235C1E372C49D8546814F0010F47D104
:104B900056696EB14FEA960C94682CB1D7685B2FBA
:104BA00002D9176907B1C6B92CB14FF0FF340EE036
:104BB0004FF0800CF0E7D4688CB9146994B14FF0D1
:104BC000FF3404E01546002418234FF0800C012C1C
:104BD0000AD0ACB1059807B0F0BD0124F7E74FF05B
:104BE000FF34F4E70024F2E714699268029201941A
:104BF00000930B4662462946FFF7E8F90590E9E77E
:104C000005AA019200930B461FFA8CF22946FFF782
:104C100018FA0128DED000230593DBE70020DAE74D
:104C20000020D8E708B5EFF3058333B908B90020B1
:104C300008BDFFF79FFB0020FAE76FF00500F7E7DC
:104C4000034B0360034B0B6080231360704700BF6E
:104C5000A80D0020A80B0020034B0360034B0B6042
:104C60004FF480731360704708120020080E002074
:104C7000134A12F0070F1FD0D11D21F00701C1F513
:104C80003B63083313440A460E480260002141602A
:104C90001344083B23F007030B4803605960196075
:104CA000991A51601360094B1960094B1960094B3F
:104CB0004FF000421A60704740F6B833E4E700BF97
:104CC00068120020341E002064120020281E0020DC
:104CD000241E0020201E0020164B1A461B6883420B
:104CE000FBD3516802EB010C844509D0416800EB0D
:104CF000010C634509D00360904219D010607047E1
:104D00004068014451601046F0E710B40A4C246832
:104D1000A3420BD05B681944416013681B680360B1
:104D2000904200D010605DF8044B70470460F7E7D4
:104D3000704700BF341E00206412002070B5054685
:104D4000FFF702FA364B1B68A3B1364B1B681D42B6
:104D50004ED135B1083515F0070F02D025F0070503
:104D60000835002D46D0304B1B68AB4251D32F4A3B
:104D7000146804E0FFF77CFFE7E722461C466368FF
:104D8000AB4202D22368002BF7D1254B1B68A3420C
:104D900041D0166808362368136063685B1B102BCC
:104DA00010D9601910F0070F08D04FF0500383F3AB
:104DB0001188BFF36F8FBFF34F8FFEE743606560CD
:104DC000FFF78AFF626818490B689B1A0B60184945
:104DD00009688B4201D216490B60124B1B681343C2
:104DE000636000232360134A13680133136002E0F9
:104DF000002600E00026FFF741FA16F0070F0CD05E
:104E00004FF0500383F31188BFF36F8FBFF34F8FC1
:104E1000FEE70026EFE70026EDE7304670BD00BF55
:104E200064120020201E0020241E0020341E0020BA
:104E3000281E00202C1E0020002834D038B504463F
:104E4000A0F1080550F8043C174A1268134208D133
:104E50004FF0500383F31188BFF36F8FBFF34F8F71
:104E6000FEE750F8081C41B14FF0500383F311885E
:104E7000BFF36F8FBFF34F8FFEE723EA020340F8C3
:104E8000043CFFF761F954F8041C084A13680B440A
:104E900013602846FFF720FF054A136801331360AB
:104EA000FFF7ECF938BD7047201E0020241E0020BB
:104EB000301E002082B0002301930D4B1B68B3F11C
:104EC000FF3F08D04FF0500383F31188BFF36F8F7B
:104ED000BFF34F8FFEE74FF0500383F31188BFF30A
:104EE0006F8FBFF34F8F019B002BFCD002B0704738
:104EF0000C00002008480068006880F308884FF024
:104F0000000080F3148862B661B6BFF34F8FBFF321
:104F10006F8F00DF00BF000008ED00E0DFF80C003D
:104F2000016841F4700101607047000088ED00E005
:104F30004FF0807340F8043C21F0010140F8081C58
:104F4000054B40F80C3C40F8202C6FF0020340F871
:104F5000243C4438704700BFB54E000800000000F4
:104F6000074B19680868B0E8F04F80F30988BFF371
:104F70006F8F4FF0000080F311887047AFF300800F
:104F80007C0500204FF0500383F31188BFF36F8F2F
:104F9000BFF34F8F0B4A136801331360012B00D00E
:104FA00070474FF0E023D3F8043D13F0FF0FF7D024
:104FB0004FF0500383F31188BFF36F8FBFF34F8F10
:104FC000FEE700BF0C000020094B1B6843B94FF0FF
:104FD000500383F31188BFF36F8FBFF34F8FFEE74A
:104FE000013B034A13600BB983F31188704700BF7C
:104FF0000C00002000000000000000000000000085
:10500000EFF30980BFF36F8F154B1A681EF0100F76
:1050100008BF20ED108A20E9F04F10602DE909004B
:105020004FF0500080F31188BFF34F8FBFF36F8FA5
:10503000FFF7C6F94FF0000080F3118809BC19682A
:105040000868B0E8F04F1EF0100F08BFB0EC108AEF
:1050500080F30988BFF36F8F704700BFAFF3008004
:105060007C05002008B54FF0500383F31188BFF38F
:105070006F8FBFF34F8FFFF775F828B14FF0E02324
:105080004FF08052C3F8042D002383F3118808BD2C
:105090004FF0E022002313619361054B1B68054923
:1050A000A1FB03139B09013B536107231361704765
:1050B00000000020D34D62104FF0E023D3F8002D04
:1050C0003D4B9A421CD04FF0E023D3F8002D3B4BD0
:1050D0009A421ED030B583B0394B1A78D2B20192C1
:1050E000FF221A701B78DBB28DF803309DF8033075
:1050F00003F05003334A1370334B07221A601BE04E
:105100004FF0500383F31188BFF36F8FBFF34F8FBE
:10511000FEE74FF0500383F31188BFF36F8FBFF3A7
:105120004F8FFEE7284A1368013B13609DF8033058
:105130005B00DBB28DF803309DF8033013F0800F75
:10514000F0D1214B1B68032B08D04FF0500383F3A1
:105150001188BFF36F8FBFF34F8FFEE71B021A4A10
:10516000136003F4E0631360019BDBB2144A137015
:105170004FF0E024D4F8203D43F47003C4F8203D00
:10518000D4F8203D43F07043C4F8203DFFF780FF82
:1051900000250E4B1D60FFF7C1FED4F8343F43F0ED
:1051A0004043C4F8343FFFF7A5FEFFF709F9FFF7C6
:1051B00081FE284603B030BD71C20F4170C20F415D
:1051C00000E400E03C1E0020401E00200C000020F7
:1051D000EFF305830F2B0FD9114A9B5CDBB2114A09
:1051E00012789A4208D94FF0500383F31188BFF325
:1051F0006F8FBFF34F8FFEE74FF0E023D3F80C3DE6
:1052000003F4E063084A1268934208D94FF0500350
:1052100083F31188BFF36F8FBFF34F8FFEE77047A3
:10522000F0E300E03C1E0020401E002008B52021D5
:105230004FF09040FDF779FC4FF47A70FCF718FBC3
:10524000F5E70000DFF834D0FCF7E0FA0C480D4930
:105250000D4A002302E0D458C4500433C4188C42D1
:10526000F9D30A4A0A4C002301E013600432A24237
:10527000FBD300F011F8FCF7EFF9FEE70080012006
:105280000000002048040020D856000848040020F0
:105290004C1E0020FEE7000070B50D4E0D4D761B34
:1052A000B61006D0002455F8043B01349847A642B6
:1052B000F9D1094E094D761B00F034F9B61006D02D
:1052C000002455F8043B01349847A642F9D170BD3B
:1052D000C8560008C8560008D0560008C85600082E
:1052E000830730B548D0541E002A3FD0CAB20346C7
:1052F00001E0013C3AD303F8012B9D07F9D1032CBF
:105300002DD9CDB245EA05250F2C45EA054536D9FC
:10531000A4F1100222F00F0C03F1200EE6444FEA34
:10532000121C03F1100242E9045542E90255103201
:105330007245F8D10CF1010214F00C0F03EB0212CC
:1053400004F00F0C13D0ACF1040323F00303043377
:10535000134442F8045B9342FBD10CF003042CB1DC
:10536000CAB21C4403F8012B9C42FBD130BD6446F9
:105370001346002CF4D1F9E703461446BFE71A465A
:10538000A446E0E7024B13B1024800F005B87047AD
:1053900000000000A5530008002301461A461846E5
:1053A00000F01AB838B5084B084D5B1B9C1007D0AD
:1053B000043B1D44013C55F804399847002CF9D1B1
:1053C000BDE8384000F0B4B8D4560008D056000804
:1053D000704700BF704700BF2DE9F047DFF880A09D
:1053E0000646DAF8000098460F469146FFF7F0FFB0
:1053F0001A4B1B68D3F8484124B365681F2D26DC7F
:105400005EB96B1C0235DAF80000636044F8257061
:10541000FFF7E0FF0020BDE8F08704EB85010123E2
:10542000C1F88890D4F88821AB401A43022EC4F802
:105430008821C1F80881E4D1D4F88C211343C4F841
:105440008C31DEE703F5A674C3F84841D5E7DAF8F6
:105450000000FFF7BFFF4FF0FF30DCE7D05500083A
:105460004004002008B5062000F004F8012000F0F8
:1054700057F800BF38B5154B1F281D6820D8D5F840
:10548000DC22044662B152F820304BB1012B15D01A
:10549000591C0FD0002542F820509847284638BDA7
:1054A000284600F02BF8224601462846BDE8384041
:1054B00000F00EB816232B60012038BD002038BD47
:1054C00016232B604FF0FF3038BD00BF10000020C6
:1054D00070B50C46084D03460026204611461C4672
:1054E0002E6000F015F8431C00D070BD2B68002B17
:1054F000FBD0236070BD00BF481E002000F000B844
:10550000024B58221A604FF0FF307047481E0020AF
:10551000024B58221A604FF0FF307047481E00209F
:10552000FEE700BFF8B500BFF8BC08BC9E46704758
:10553000F8B500BFF8BC08BC9E46704700000000EC
:1055400064656661756C745461736B004055000846
:10555000000000000000000000000000000000004B
:105560000002000018000000000000000000000021
:105570000000000000000000010203040607080903
:105580000000000001020304A0860100400D03009A
:10559000801A060000350C0040420F0080841E0077
:1055A00000093D0000127A000024F40000366E016C
:1055B0000048E801006CDC0249444C450000000052
:1055C000546D725100000000546D722053766300D8
:0855D00018000020000000009B
:1055D80008B10181B0B000840000000008B1018169
:1055E800B0B000840000000008B10181B0B00084B0
:0855F8000000000000000000AB
:1056000034ADFF7F0100000094B0FF7FB0A902809D
:1056100028B1FF7FB0B0A88078B1FF7F0100000003
:1056200084B1FF7FB0B0AA80B8B1FF7FAE71B28005
:105630007CB2FF7F0100000078B2FF7FAB3F388073
:10564000D8B2FF7F01000000E0B2FF7FB0B0AA80B7
:105650001CB3FF7F01000000C8B3FF7FAA0DB2801A
:1056600044B4FF7FB0AF0880E4B6FF7F01000000C4
:10567000E8B6FF7FAD3F028064B9FF7F0100000004
:1056800040BBFF7F0084048054BBFF7F010000000B
:1056900050BBFF7FB0AD0480F4BDFF7FB0A8038096
:1056A00018BEFF7F40FFFF7F1CBEFF7F44FFFF7FD0
:1056B00028BEFF7F0100000074FBFF7F1CFFFF7FFF
:0856C00082FBFF7F01000000E6
:0856C80085530008B50100083C
:0856D000910100080000000038
:1056D80000093D000100000010000000AAAAAAAAC3
:1056E8001800002000000000000000000403002053
:1056F8006C030020D403002000000000000000001C
:105708000000000000000000000000000000000091
:105718000000000000000000000000000000000081
:105728000000000000000000000000000000000071
:105738000000000000000000000000000000000061
:105748000000000000000000000000000000000051
:105758000000000000000000000000000000000041
:105768000000000000000000000000000000000031
:105778000000000000000000000000000000000021
:105788000000000000000000000000000000000011
:1057980001000000000000000E33CDAB34126DE6AE
:1057A800ECDE05000B000000000000000000000017
:1057B80000000000000000000000000000000000E1
:1057C80000000000000000000000000000000000D1
:1057D80000000000000000000000000000000000C1
:1057E80000000000000000000000000000000000B1
:085B1800441E00200000000003
:040000050800524558
:00000001FF
